{
  "_format": "hh-sol-artifact-1",
  "contractName": "Marketplace",
  "sourceName": "contracts/Marketplace.sol",
  "abi": [
    {
      "anonymous": false,
      "inputs": [
        {
          "indexed": true,
          "internalType": "uint256",
          "name": "id",
          "type": "uint256"
        },
        {
          "indexed": false,
          "internalType": "string",
          "name": "name",
          "type": "string"
        },
        {
          "indexed": false,
          "internalType": "uint256",
          "name": "price",
          "type": "uint256"
        },
        {
          "indexed": true,
          "internalType": "address",
          "name": "seller",
          "type": "address"
        }
      ],
      "name": "ProductCreated",
      "type": "event"
    },
    {
      "anonymous": false,
      "inputs": [
        {
          "indexed": true,
          "internalType": "uint256",
          "name": "id",
          "type": "uint256"
        },
        {
          "indexed": true,
          "internalType": "address",
          "name": "buyer",
          "type": "address"
        },
        {
          "indexed": true,
          "internalType": "address",
          "name": "seller",
          "type": "address"
        },
        {
          "indexed": false,
          "internalType": "uint256",
          "name": "price",
          "type": "uint256"
        }
      ],
      "name": "ProductPurchased",
      "type": "event"
    },
    {
      "inputs": [
        {
          "internalType": "string",
          "name": "_name",
          "type": "string"
        },
        {
          "internalType": "string",
          "name": "_description",
          "type": "string"
        },
        {
          "internalType": "uint256",
          "name": "_price",
          "type": "uint256"
        }
      ],
      "name": "createProduct",
      "outputs": [
        {
          "internalType": "uint256",
          "name": "",
          "type": "uint256"
        }
      ],
      "stateMutability": "nonpayable",
      "type": "function"
    },
    {
      "inputs": [
        {
          "internalType": "uint256",
          "name": "_id",
          "type": "uint256"
        }
      ],
      "name": "getProduct",
      "outputs": [
        {
          "internalType": "uint256",
          "name": "id",
          "type": "uint256"
        },
        {
          "internalType": "string",
          "name": "name",
          "type": "string"
        },
        {
          "internalType": "string",
          "name": "description",
          "type": "string"
        },
        {
          "internalType": "uint256",
          "name": "price",
          "type": "uint256"
        },
        {
          "internalType": "address",
          "name": "seller",
          "type": "address"
        },
        {
          "internalType": "address",
          "name": "buyer",
          "type": "address"
        },
        {
          "internalType": "bool",
          "name": "sold",
          "type": "bool"
        }
      ],
      "stateMutability": "view",
      "type": "function"
    },
    {
      "inputs": [],
      "name": "getProductCount",
      "outputs": [
        {
          "internalType": "uint256",
          "name": "",
          "type": "uint256"
        }
      ],
      "stateMutability": "view",
      "type": "function"
    },
    {
      "inputs": [
        {
          "internalType": "uint256",
          "name": "",
          "type": "uint256"
        }
      ],
      "name": "products",
      "outputs": [
        {
          "internalType": "uint256",
          "name": "id",
          "type": "uint256"
        },
        {
          "internalType": "string",
          "name": "name",
          "type": "string"
        },
        {
          "internalType": "string",
          "name": "description",
          "type": "string"
        },
        {
          "internalType": "uint256",
          "name": "price",
          "type": "uint256"
        },
        {
          "internalType": "address payable",
          "name": "seller",
          "type": "address"
        },
        {
          "internalType": "address",
          "name": "buyer",
          "type": "address"
        },
        {
          "internalType": "bool",
          "name": "sold",
          "type": "bool"
        },
        {
          "internalType": "bool",
          "name": "exists",
          "type": "bool"
        }
      ],
      "stateMutability": "view",
      "type": "function"
    },
    {
      "inputs": [
        {
          "internalType": "uint256",
          "name": "_id",
          "type": "uint256"
        }
      ],
      "name": "purchaseProduct",
      "outputs": [],
      "stateMutability": "payable",
      "type": "function"
    }
  ],
  "bytecode": "0x608060405234801561001057600080fd5b50611475806100206000396000f3fe60806040526004361061004a5760003560e01c806338e76a031461004f5780634a348da91461006b5780637acc0b2014610096578063a1422209146100da578063b9db15b414610117575b600080fd5b61006960048036038101906100649190610c7a565b61015a565b005b34801561007757600080fd5b5061008061044a565b60405161008d9190610cb6565b60405180910390f35b3480156100a257600080fd5b506100bd60048036038101906100b89190610c7a565b610453565b6040516100d1989796959493929190610de7565b60405180910390f35b3480156100e657600080fd5b5061010160048036038101906100fc9190610fa8565b610605565b60405161010e9190610cb6565b60405180910390f35b34801561012357600080fd5b5061013e60048036038101906101399190610c7a565b6108a5565b6040516101519796959493929190611033565b60405180910390f35b60006001600083815260200190815260200160002090508060050160159054906101000a900460ff166101c2576040517f08c379a00000000000000000000000000000000000000000000000000000000081526004016101b9906110fc565b60405180910390fd5b8060050160149054906101000a900460ff1615610214576040517f08c379a000000000000000000000000000000000000000000000000000000000815260040161020b90611168565b60405180910390fd5b806003015434101561025b576040517f08c379a0000000000000000000000000000000000000000000000000000000008152600401610252906111d4565b60405180910390fd5b8060040160009054906101000a900473ffffffffffffffffffffffffffffffffffffffff1673ffffffffffffffffffffffffffffffffffffffff163373ffffffffffffffffffffffffffffffffffffffff16036102ed576040517f08c379a00000000000000000000000000000000000000000000000000000000081526004016102e490611240565b60405180910390fd5b338160050160006101000a81548173ffffffffffffffffffffffffffffffffffffffff021916908373ffffffffffffffffffffffffffffffffffffffff16021790555060018160050160146101000a81548160ff0219169083151502179055508060040160009054906101000a900473ffffffffffffffffffffffffffffffffffffffff1673ffffffffffffffffffffffffffffffffffffffff166108fc349081150290604051600060405180830381858888f193505050501580156103b7573d6000803e3d6000fd5b508060040160009054906101000a900473ffffffffffffffffffffffffffffffffffffffff1673ffffffffffffffffffffffffffffffffffffffff163373ffffffffffffffffffffffffffffffffffffffff16837f89a8790373694cb8e6f5112d59a2e66f88c2be837274055780f8910dab3e695c846003015460405161043e9190610cb6565b60405180910390a45050565b60008054905090565b600160205280600052604060002060009150905080600001549080600101805461047c9061128f565b80601f01602080910402602001604051908101604052809291908181526020018280546104a89061128f565b80156104f55780601f106104ca576101008083540402835291602001916104f5565b820191906000526020600020905b8154815290600101906020018083116104d857829003601f168201915b50505050509080600201805461050a9061128f565b80601f01602080910402602001604051908101604052809291908181526020018280546105369061128f565b80156105835780601f1061055857610100808354040283529160200191610583565b820191906000526020600020905b81548152906001019060200180831161056657829003601f168201915b5050505050908060030154908060040160009054906101000a900473ffffffffffffffffffffffffffffffffffffffff16908060050160009054906101000a900473ffffffffffffffffffffffffffffffffffffffff16908060050160149054906101000a900460ff16908060050160159054906101000a900460ff16905088565b60008084511161064a576040517f08c379a00000000000000000000000000000000000000000000000000000000081526004016106419061130c565b60405180910390fd5b6000821161068d576040517f08c379a000000000000000000000000000000000000000000000000000000000815260040161068490611378565b60405180910390fd5b60008081548092919061069f906113c7565b919050555060405180610100016040528060005481526020018581526020018481526020018381526020013373ffffffffffffffffffffffffffffffffffffffff168152602001600073ffffffffffffffffffffffffffffffffffffffff16815260200160001515815260200160011515815250600160008054815260200190815260200160002060008201518160000155602082015181600101908051906020019061074d929190610b8d565b50604082015181600201908051906020019061076a929190610b8d565b506060820151816003015560808201518160040160006101000a81548173ffffffffffffffffffffffffffffffffffffffff021916908373ffffffffffffffffffffffffffffffffffffffff16021790555060a08201518160050160006101000a81548173ffffffffffffffffffffffffffffffffffffffff021916908373ffffffffffffffffffffffffffffffffffffffff16021790555060c08201518160050160146101000a81548160ff02191690831515021790555060e08201518160050160156101000a81548160ff0219169083151502179055509050503373ffffffffffffffffffffffffffffffffffffffff166000547f2e87df3c8f53fb06266ed52023929f5fab9f24130224ef6538b665d9cac82530868560405161089192919061140f565b60405180910390a360005490509392505050565b60006060806000806000806001600089815260200190815260200160002060050160159054906101000a900460ff16610913576040517f08c379a000000000000000000000000000000000000000000000000000000000815260040161090a906110fc565b60405180910390fd5b6000600160008a8152602001908152602001600020604051806101000160405290816000820154815260200160018201805461094e9061128f565b80601f016020809104026020016040519081016040528092919081815260200182805461097a9061128f565b80156109c75780601f1061099c576101008083540402835291602001916109c7565b820191906000526020600020905b8154815290600101906020018083116109aa57829003601f168201915b505050505081526020016002820180546109e09061128f565b80601f0160208091040260200160405190810160405280929190818152602001828054610a0c9061128f565b8015610a595780601f10610a2e57610100808354040283529160200191610a59565b820191906000526020600020905b815481529060010190602001808311610a3c57829003601f168201915b50505050508152602001600382015481526020016004820160009054906101000a900473ffffffffffffffffffffffffffffffffffffffff1673ffffffffffffffffffffffffffffffffffffffff1673ffffffffffffffffffffffffffffffffffffffff1681526020016005820160009054906101000a900473ffffffffffffffffffffffffffffffffffffffff1673ffffffffffffffffffffffffffffffffffffffff1673ffffffffffffffffffffffffffffffffffffffff1681526020016005820160149054906101000a900460ff161515151581526020016005820160159054906101000a900460ff1615151515815250509050806000015181602001518260400151836060015184608001518560a001518660c00151975097509750975097509750975050919395979092949650565b828054610b999061128f565b90600052602060002090601f016020900481019282610bbb5760008555610c02565b82601f10610bd457805160ff1916838001178555610c02565b82800160010185558215610c02579182015b82811115610c01578251825591602001919060010190610be6565b5b509050610c0f9190610c13565b5090565b5b80821115610c2c576000816000905550600101610c14565b5090565b6000604051905090565b600080fd5b600080fd5b6000819050919050565b610c5781610c44565b8114610c6257600080fd5b50565b600081359050610c7481610c4e565b92915050565b600060208284031215610c9057610c8f610c3a565b5b6000610c9e84828501610c65565b91505092915050565b610cb081610c44565b82525050565b6000602082019050610ccb6000830184610ca7565b92915050565b600081519050919050565b600082825260208201905092915050565b60005b83811015610d0b578082015181840152602081019050610cf0565b83811115610d1a576000848401525b50505050565b6000601f19601f8301169050919050565b6000610d3c82610cd1565b610d468185610cdc565b9350610d56818560208601610ced565b610d5f81610d20565b840191505092915050565b600073ffffffffffffffffffffffffffffffffffffffff82169050919050565b6000610d9582610d6a565b9050919050565b610da581610d8a565b82525050565b6000610db682610d6a565b9050919050565b610dc681610dab565b82525050565b60008115159050919050565b610de181610dcc565b82525050565b600061010082019050610dfd600083018b610ca7565b8181036020830152610e0f818a610d31565b90508181036040830152610e238189610d31565b9050610e326060830188610ca7565b610e3f6080830187610d9c565b610e4c60a0830186610dbd565b610e5960c0830185610dd8565b610e6660e0830184610dd8565b9998505050505050505050565b600080fd5b600080fd5b7f4e487b7100000000000000000000000000000000000000000000000000000000600052604160045260246000fd5b610eb582610d20565b810181811067ffffffffffffffff82111715610ed457610ed3610e7d565b5b80604052505050565b6000610ee7610c30565b9050610ef38282610eac565b919050565b600067ffffffffffffffff821115610f1357610f12610e7d565b5b610f1c82610d20565b9050602081019050919050565b82818337600083830152505050565b6000610f4b610f4684610ef8565b610edd565b905082815260208101848484011115610f6757610f66610e78565b5b610f72848285610f29565b509392505050565b600082601f830112610f8f57610f8e610e73565b5b8135610f9f848260208601610f38565b91505092915050565b600080600060608486031215610fc157610fc0610c3a565b5b600084013567ffffffffffffffff811115610fdf57610fde610c3f565b5b610feb86828701610f7a565b935050602084013567ffffffffffffffff81111561100c5761100b610c3f565b5b61101886828701610f7a565b925050604061102986828701610c65565b9150509250925092565b600060e082019050611048600083018a610ca7565b818103602083015261105a8189610d31565b9050818103604083015261106e8188610d31565b905061107d6060830187610ca7565b61108a6080830186610dbd565b61109760a0830185610dbd565b6110a460c0830184610dd8565b98975050505050505050565b7f50726f6475637420646f6573206e6f7420657869737400000000000000000000600082015250565b60006110e6601683610cdc565b91506110f1826110b0565b602082019050919050565b60006020820190508181036000830152611115816110d9565b9050919050565b7f50726f6475637420616c726561647920736f6c64000000000000000000000000600082015250565b6000611152601483610cdc565b915061115d8261111c565b602082019050919050565b6000602082019050818103600083015261118181611145565b9050919050565b7f496e73756666696369656e74207061796d656e74000000000000000000000000600082015250565b60006111be601483610cdc565b91506111c982611188565b602082019050919050565b600060208201905081810360008301526111ed816111b1565b9050919050565b7f53656c6c65722063616e6e6f7420627579206f776e2070726f64756374000000600082015250565b600061122a601d83610cdc565b9150611235826111f4565b602082019050919050565b600060208201905081810360008301526112598161121d565b9050919050565b7f4e487b7100000000000000000000000000000000000000000000000000000000600052602260045260246000fd5b600060028204905060018216806112a757607f821691505b6020821081036112ba576112b9611260565b5b50919050565b7f50726f64756374206e616d652069732072657175697265640000000000000000600082015250565b60006112f6601883610cdc565b9150611301826112c0565b602082019050919050565b60006020820190508181036000830152611325816112e9565b9050919050565b7f5072696365206d7573742062652067726561746572207468616e203000000000600082015250565b6000611362601c83610cdc565b915061136d8261132c565b602082019050919050565b6000602082019050818103600083015261139181611355565b9050919050565b7f4e487b7100000000000000000000000000000000000000000000000000000000600052601160045260246000fd5b60006113d282610c44565b91507fffffffffffffffffffffffffffffffffffffffffffffffffffffffffffffffff820361140457611403611398565b5b600182019050919050565b600060408201905081810360008301526114298185610d31565b90506114386020830184610ca7565b939250505056fea2646970667358221220710ca989c53a299f021ee8d9d4b5dc6b912dee46333a72f2c847c1c6face26c564736f6c634300080d0033",
  "linkReferences": {},
  "deployedLinkReferences": {}
}